{
  "_format": "hh-sol-artifact-1",
  "contractName": "LW3Punks",
  "sourceName": "contracts/LW3Punks.sol",
  "abi": [
    {
      "inputs": [
        {
          "internalType": "string",
          "name": "baseURI",
          "type": "string"
        }
      ],
      "stateMutability": "nonpayable",
      "type": "constructor"
    },
    {
      "inputs": [],
      "name": "ERC721EnumerableForbiddenBatchMint",
      "type": "error"
    },
    {
      "inputs": [
        {
          "internalType": "address",
          "name": "sender",
          "type": "address"
        },
        {
          "internalType": "uint256",
          "name": "tokenId",
          "type": "uint256"
        },
        {
          "internalType": "address",
          "name": "owner",
          "type": "address"
        }
      ],
      "name": "ERC721IncorrectOwner",
      "type": "error"
    },
    {
      "inputs": [
        {
          "internalType": "address",
          "name": "operator",
          "type": "address"
        },
        {
          "internalType": "uint256",
          "name": "tokenId",
          "type": "uint256"
        }
      ],
      "name": "ERC721InsufficientApproval",
      "type": "error"
    },
    {
      "inputs": [
        {
          "internalType": "address",
          "name": "approver",
          "type": "address"
        }
      ],
      "name": "ERC721InvalidApprover",
      "type": "error"
    },
    {
      "inputs": [
        {
          "internalType": "address",
          "name": "operator",
          "type": "address"
        }
      ],
      "name": "ERC721InvalidOperator",
      "type": "error"
    },
    {
      "inputs": [
        {
          "internalType": "address",
          "name": "owner",
          "type": "address"
        }
      ],
      "name": "ERC721InvalidOwner",
      "type": "error"
    },
    {
      "inputs": [
        {
          "internalType": "address",
          "name": "receiver",
          "type": "address"
        }
      ],
      "name": "ERC721InvalidReceiver",
      "type": "error"
    },
    {
      "inputs": [
        {
          "internalType": "address",
          "name": "sender",
          "type": "address"
        }
      ],
      "name": "ERC721InvalidSender",
      "type": "error"
    },
    {
      "inputs": [
        {
          "internalType": "uint256",
          "name": "tokenId",
          "type": "uint256"
        }
      ],
      "name": "ERC721NonexistentToken",
      "type": "error"
    },
    {
      "inputs": [
        {
          "internalType": "address",
          "name": "owner",
          "type": "address"
        },
        {
          "internalType": "uint256",
          "name": "index",
          "type": "uint256"
        }
      ],
      "name": "ERC721OutOfBoundsIndex",
      "type": "error"
    },
    {
      "inputs": [
        {
          "internalType": "address",
          "name": "owner",
          "type": "address"
        }
      ],
      "name": "OwnableInvalidOwner",
      "type": "error"
    },
    {
      "inputs": [
        {
          "internalType": "address",
          "name": "account",
          "type": "address"
        }
      ],
      "name": "OwnableUnauthorizedAccount",
      "type": "error"
    },
    {
      "anonymous": false,
      "inputs": [
        {
          "indexed": true,
          "internalType": "address",
          "name": "owner",
          "type": "address"
        },
        {
          "indexed": true,
          "internalType": "address",
          "name": "approved",
          "type": "address"
        },
        {
          "indexed": true,
          "internalType": "uint256",
          "name": "tokenId",
          "type": "uint256"
        }
      ],
      "name": "Approval",
      "type": "event"
    },
    {
      "anonymous": false,
      "inputs": [
        {
          "indexed": true,
          "internalType": "address",
          "name": "owner",
          "type": "address"
        },
        {
          "indexed": true,
          "internalType": "address",
          "name": "operator",
          "type": "address"
        },
        {
          "indexed": false,
          "internalType": "bool",
          "name": "approved",
          "type": "bool"
        }
      ],
      "name": "ApprovalForAll",
      "type": "event"
    },
    {
      "anonymous": false,
      "inputs": [
        {
          "indexed": true,
          "internalType": "address",
          "name": "previousOwner",
          "type": "address"
        },
        {
          "indexed": true,
          "internalType": "address",
          "name": "newOwner",
          "type": "address"
        }
      ],
      "name": "OwnershipTransferred",
      "type": "event"
    },
    {
      "anonymous": false,
      "inputs": [
        {
          "indexed": true,
          "internalType": "address",
          "name": "from",
          "type": "address"
        },
        {
          "indexed": true,
          "internalType": "address",
          "name": "to",
          "type": "address"
        },
        {
          "indexed": true,
          "internalType": "uint256",
          "name": "tokenId",
          "type": "uint256"
        }
      ],
      "name": "Transfer",
      "type": "event"
    },
    {
      "stateMutability": "payable",
      "type": "fallback"
    },
    {
      "inputs": [],
      "name": "_paused",
      "outputs": [
        {
          "internalType": "bool",
          "name": "",
          "type": "bool"
        }
      ],
      "stateMutability": "view",
      "type": "function"
    },
    {
      "inputs": [],
      "name": "_price",
      "outputs": [
        {
          "internalType": "uint256",
          "name": "",
          "type": "uint256"
        }
      ],
      "stateMutability": "view",
      "type": "function"
    },
    {
      "inputs": [
        {
          "internalType": "address",
          "name": "to",
          "type": "address"
        },
        {
          "internalType": "uint256",
          "name": "tokenId",
          "type": "uint256"
        }
      ],
      "name": "approve",
      "outputs": [],
      "stateMutability": "nonpayable",
      "type": "function"
    },
    {
      "inputs": [
        {
          "internalType": "address",
          "name": "owner",
          "type": "address"
        }
      ],
      "name": "balanceOf",
      "outputs": [
        {
          "internalType": "uint256",
          "name": "",
          "type": "uint256"
        }
      ],
      "stateMutability": "view",
      "type": "function"
    },
    {
      "inputs": [
        {
          "internalType": "uint256",
          "name": "tokenId",
          "type": "uint256"
        }
      ],
      "name": "getApproved",
      "outputs": [
        {
          "internalType": "address",
          "name": "",
          "type": "address"
        }
      ],
      "stateMutability": "view",
      "type": "function"
    },
    {
      "inputs": [
        {
          "internalType": "address",
          "name": "owner",
          "type": "address"
        },
        {
          "internalType": "address",
          "name": "operator",
          "type": "address"
        }
      ],
      "name": "isApprovedForAll",
      "outputs": [
        {
          "internalType": "bool",
          "name": "",
          "type": "bool"
        }
      ],
      "stateMutability": "view",
      "type": "function"
    },
    {
      "inputs": [],
      "name": "maxTokenIds",
      "outputs": [
        {
          "internalType": "uint256",
          "name": "",
          "type": "uint256"
        }
      ],
      "stateMutability": "view",
      "type": "function"
    },
    {
      "inputs": [],
      "name": "mint",
      "outputs": [],
      "stateMutability": "payable",
      "type": "function"
    },
    {
      "inputs": [],
      "name": "name",
      "outputs": [
        {
          "internalType": "string",
          "name": "",
          "type": "string"
        }
      ],
      "stateMutability": "view",
      "type": "function"
    },
    {
      "inputs": [],
      "name": "owner",
      "outputs": [
        {
          "internalType": "address",
          "name": "",
          "type": "address"
        }
      ],
      "stateMutability": "view",
      "type": "function"
    },
    {
      "inputs": [
        {
          "internalType": "uint256",
          "name": "tokenId",
          "type": "uint256"
        }
      ],
      "name": "ownerOf",
      "outputs": [
        {
          "internalType": "address",
          "name": "",
          "type": "address"
        }
      ],
      "stateMutability": "view",
      "type": "function"
    },
    {
      "inputs": [],
      "name": "renounceOwnership",
      "outputs": [],
      "stateMutability": "nonpayable",
      "type": "function"
    },
    {
      "inputs": [
        {
          "internalType": "address",
          "name": "from",
          "type": "address"
        },
        {
          "internalType": "address",
          "name": "to",
          "type": "address"
        },
        {
          "internalType": "uint256",
          "name": "tokenId",
          "type": "uint256"
        }
      ],
      "name": "safeTransferFrom",
      "outputs": [],
      "stateMutability": "nonpayable",
      "type": "function"
    },
    {
      "inputs": [
        {
          "internalType": "address",
          "name": "from",
          "type": "address"
        },
        {
          "internalType": "address",
          "name": "to",
          "type": "address"
        },
        {
          "internalType": "uint256",
          "name": "tokenId",
          "type": "uint256"
        },
        {
          "internalType": "bytes",
          "name": "data",
          "type": "bytes"
        }
      ],
      "name": "safeTransferFrom",
      "outputs": [],
      "stateMutability": "nonpayable",
      "type": "function"
    },
    {
      "inputs": [
        {
          "internalType": "address",
          "name": "operator",
          "type": "address"
        },
        {
          "internalType": "bool",
          "name": "approved",
          "type": "bool"
        }
      ],
      "name": "setApprovalForAll",
      "outputs": [],
      "stateMutability": "nonpayable",
      "type": "function"
    },
    {
      "inputs": [
        {
          "internalType": "bool",
          "name": "val",
          "type": "bool"
        }
      ],
      "name": "setPaused",
      "outputs": [],
      "stateMutability": "nonpayable",
      "type": "function"
    },
    {
      "inputs": [
        {
          "internalType": "bytes4",
          "name": "interfaceId",
          "type": "bytes4"
        }
      ],
      "name": "supportsInterface",
      "outputs": [
        {
          "internalType": "bool",
          "name": "",
          "type": "bool"
        }
      ],
      "stateMutability": "view",
      "type": "function"
    },
    {
      "inputs": [],
      "name": "symbol",
      "outputs": [
        {
          "internalType": "string",
          "name": "",
          "type": "string"
        }
      ],
      "stateMutability": "view",
      "type": "function"
    },
    {
      "inputs": [
        {
          "internalType": "uint256",
          "name": "index",
          "type": "uint256"
        }
      ],
      "name": "tokenByIndex",
      "outputs": [
        {
          "internalType": "uint256",
          "name": "",
          "type": "uint256"
        }
      ],
      "stateMutability": "view",
      "type": "function"
    },
    {
      "inputs": [],
      "name": "tokenIds",
      "outputs": [
        {
          "internalType": "uint256",
          "name": "",
          "type": "uint256"
        }
      ],
      "stateMutability": "view",
      "type": "function"
    },
    {
      "inputs": [
        {
          "internalType": "address",
          "name": "owner",
          "type": "address"
        },
        {
          "internalType": "uint256",
          "name": "index",
          "type": "uint256"
        }
      ],
      "name": "tokenOfOwnerByIndex",
      "outputs": [
        {
          "internalType": "uint256",
          "name": "",
          "type": "uint256"
        }
      ],
      "stateMutability": "view",
      "type": "function"
    },
    {
      "inputs": [
        {
          "internalType": "uint256",
          "name": "tokenId",
          "type": "uint256"
        }
      ],
      "name": "tokenURI",
      "outputs": [
        {
          "internalType": "string",
          "name": "",
          "type": "string"
        }
      ],
      "stateMutability": "view",
      "type": "function"
    },
    {
      "inputs": [],
      "name": "totalSupply",
      "outputs": [
        {
          "internalType": "uint256",
          "name": "",
          "type": "uint256"
        }
      ],
      "stateMutability": "view",
      "type": "function"
    },
    {
      "inputs": [
        {
          "internalType": "address",
          "name": "from",
          "type": "address"
        },
        {
          "internalType": "address",
          "name": "to",
          "type": "address"
        },
        {
          "internalType": "uint256",
          "name": "tokenId",
          "type": "uint256"
        }
      ],
      "name": "transferFrom",
      "outputs": [],
      "stateMutability": "nonpayable",
      "type": "function"
    },
    {
      "inputs": [
        {
          "internalType": "address",
          "name": "newOwner",
          "type": "address"
        }
      ],
      "name": "transferOwnership",
      "outputs": [],
      "stateMutability": "nonpayable",
      "type": "function"
    },
    {
      "inputs": [],
      "name": "withdraw",
      "outputs": [],
      "stateMutability": "nonpayable",
      "type": "function"
    },
    {
      "stateMutability": "payable",
      "type": "receive"
    }
  ],
  "bytecode": "0x6080604052662386f26fc10000600c55600a600e553480156200002157600080fd5b5060405162003664380380620036648339818101604052810190620000479190620003d3565b336040518060400160405280600881526020017f4c573350756e6b730000000000000000000000000000000000000000000000008152506040518060400160405280600481526020017f4c573350000000000000000000000000000000000000000000000000000000008152508160009081620000c591906200066f565b508060019081620000d791906200066f565b505050600073ffffffffffffffffffffffffffffffffffffffff168173ffffffffffffffffffffffffffffffffffffffff16036200014f5760006040517f1e4fbdf70000000000000000000000000000000000000000000000000000000081526004016200014691906200079b565b60405180910390fd5b62000160816200017a60201b60201c565b5080600b90816200017291906200066f565b5050620007b8565b6000600a60009054906101000a900473ffffffffffffffffffffffffffffffffffffffff16905081600a60006101000a81548173ffffffffffffffffffffffffffffffffffffffff021916908373ffffffffffffffffffffffffffffffffffffffff1602179055508173ffffffffffffffffffffffffffffffffffffffff168173ffffffffffffffffffffffffffffffffffffffff167f8be0079c531659141344cd1fd0a4f28419497f9722a3daafe3b4186f6b6457e060405160405180910390a35050565b6000604051905090565b600080fd5b600080fd5b600080fd5b600080fd5b6000601f19601f8301169050919050565b7f4e487b7100000000000000000000000000000000000000000000000000000000600052604160045260246000fd5b620002a9826200025e565b810181811067ffffffffffffffff82111715620002cb57620002ca6200026f565b5b80604052505050565b6000620002e062000240565b9050620002ee82826200029e565b919050565b600067ffffffffffffffff8211156200031157620003106200026f565b5b6200031c826200025e565b9050602081019050919050565b60005b83811015620003495780820151818401526020810190506200032c565b60008484015250505050565b60006200036c6200036684620002f3565b620002d4565b9050828152602081018484840111156200038b576200038a62000259565b5b6200039884828562000329565b509392505050565b600082601f830112620003b857620003b762000254565b5b8151620003ca84826020860162000355565b91505092915050565b600060208284031215620003ec57620003eb6200024a565b5b600082015167ffffffffffffffff8111156200040d576200040c6200024f565b5b6200041b84828501620003a0565b91505092915050565b600081519050919050565b7f4e487b7100000000000000000000000000000000000000000000000000000000600052602260045260246000fd5b600060028204905060018216806200047757607f821691505b6020821081036200048d576200048c6200042f565b5b50919050565b60008190508160005260206000209050919050565b60006020601f8301049050919050565b600082821b905092915050565b600060088302620004f77fffffffffffffffffffffffffffffffffffffffffffffffffffffffffffffffff82620004b8565b620005038683620004b8565b95508019841693508086168417925050509392505050565b6000819050919050565b6000819050919050565b6000620005506200054a62000544846200051b565b62000525565b6200051b565b9050919050565b6000819050919050565b6200056c836200052f565b620005846200057b8262000557565b848454620004c5565b825550505050565b600090565b6200059b6200058c565b620005a881848462000561565b505050565b5b81811015620005d057620005c460008262000591565b600181019050620005ae565b5050565b601f8211156200061f57620005e98162000493565b620005f484620004a8565b8101602085101562000604578190505b6200061c6200061385620004a8565b830182620005ad565b50505b505050565b600082821c905092915050565b6000620006446000198460080262000624565b1980831691505092915050565b60006200065f838362000631565b9150826002028217905092915050565b6200067a8262000424565b67ffffffffffffffff8111156200069657620006956200026f565b5b620006a282546200045e565b620006af828285620005d4565b600060209050601f831160018114620006e75760008415620006d2578287015190505b620006de858262000651565b8655506200074e565b601f198416620006f78662000493565b60005b828110156200072157848901518255600182019150602085019450602081019050620006fa565b868310156200074157848901516200073d601f89168262000631565b8355505b6001600288020188555050505b505050505050565b600073ffffffffffffffffffffffffffffffffffffffff82169050919050565b6000620007838262000756565b9050919050565b620007958162000776565b82525050565b6000602082019050620007b260008301846200078a565b92915050565b612e9c80620007c86000396000f3fe6080604052600436106101855760003560e01c80634f6ccce7116100d15780638da5cb5b1161008a578063b88d4fde11610064578063b88d4fde14610559578063c87b56dd14610582578063e985e9c5146105bf578063f2fde38b146105fc5761018c565b80638da5cb5b146104da57806395d89b4114610505578063a22cb465146105305761018c565b80634f6ccce7146103b65780635f769621146103f35780636352211e1461041e57806370a082311461045b578063714cff5614610498578063715018a6146104c35761018c565b806316c61ccc1161013e57806323b872dd1161011857806323b872dd146103105780632f745c59146103395780633ccfd60b1461037657806342842e0e1461038d5761018c565b806316c61ccc1461028f57806318160ddd146102ba578063235b6ea1146102e55761018c565b806301ffc9a71461018e57806306fdde03146101cb578063081812fc146101f6578063095ea7b3146102335780631249c58b1461025c57806316c38b3c146102665761018c565b3661018c57005b005b34801561019a57600080fd5b506101b560048036038101906101b091906123ce565b610625565b6040516101c29190612416565b60405180910390f35b3480156101d757600080fd5b506101e061069f565b6040516101ed91906124c1565b60405180910390f35b34801561020257600080fd5b5061021d60048036038101906102189190612519565b610731565b60405161022a9190612587565b60405180910390f35b34801561023f57600080fd5b5061025a600480360381019061025591906125ce565b61074d565b005b610264610763565b005b34801561027257600080fd5b5061028d6004803603810190610288919061263a565b610866565b005b34801561029b57600080fd5b506102a461088b565b6040516102b19190612416565b60405180910390f35b3480156102c657600080fd5b506102cf61089e565b6040516102dc9190612676565b60405180910390f35b3480156102f157600080fd5b506102fa6108ab565b6040516103079190612676565b60405180910390f35b34801561031c57600080fd5b5061033760048036038101906103329190612691565b6108b1565b005b34801561034557600080fd5b50610360600480360381019061035b91906125ce565b6109b3565b60405161036d9190612676565b60405180910390f35b34801561038257600080fd5b5061038b610a5c565b005b34801561039957600080fd5b506103b460048036038101906103af9190612691565b610b26565b005b3480156103c257600080fd5b506103dd60048036038101906103d89190612519565b610b46565b6040516103ea9190612676565b60405180910390f35b3480156103ff57600080fd5b50610408610bbc565b6040516104159190612676565b60405180910390f35b34801561042a57600080fd5b5061044560048036038101906104409190612519565b610bc2565b6040516104529190612587565b60405180910390f35b34801561046757600080fd5b50610482600480360381019061047d91906126e4565b610bd4565b60405161048f9190612676565b60405180910390f35b3480156104a457600080fd5b506104ad610c8e565b6040516104ba9190612676565b60405180910390f35b3480156104cf57600080fd5b506104d8610c94565b005b3480156104e657600080fd5b506104ef610ca8565b6040516104fc9190612587565b60405180910390f35b34801561051157600080fd5b5061051a610cd2565b60405161052791906124c1565b60405180910390f35b34801561053c57600080fd5b5061055760048036038101906105529190612711565b610d64565b005b34801561056557600080fd5b50610580600480360381019061057b9190612886565b610d7a565b005b34801561058e57600080fd5b506105a960048036038101906105a49190612519565b610d97565b6040516105b691906124c1565b60405180910390f35b3480156105cb57600080fd5b506105e660048036038101906105e19190612909565b610e00565b6040516105f39190612416565b60405180910390f35b34801561060857600080fd5b50610623600480360381019061061e91906126e4565b610e94565b005b60007f780e9d63000000000000000000000000000000000000000000000000000000007bffffffffffffffffffffffffffffffffffffffffffffffffffffffff1916827bffffffffffffffffffffffffffffffffffffffffffffffffffffffff19161480610698575061069782610f1a565b5b9050919050565b6060600080546106ae90612978565b80601f01602080910402602001604051908101604052809291908181526020018280546106da90612978565b80156107275780601f106106fc57610100808354040283529160200191610727565b820191906000526020600020905b81548152906001019060200180831161070a57829003601f168201915b5050505050905090565b600061073c82610ffc565b5061074682611084565b9050919050565b61075f828261075a6110c1565b6110c9565b5050565b600d60009054906101000a900460ff16156107b3576040517f08c379a00000000000000000000000000000000000000000000000000000000081526004016107aa906129f5565b60405180910390fd5b600e54600f54106107f9576040517f08c379a00000000000000000000000000000000000000000000000000000000081526004016107f090612a61565b60405180910390fd5b600c5434101561083e576040517f08c379a000000000000000000000000000000000000000000000000000000000815260040161083590612acd565b60405180910390fd5b6001600f60008282546108519190612b1c565b9250508190555061086433600f546110db565b565b61086e6110f9565b80600d60006101000a81548160ff02191690831515021790555050565b600d60009054906101000a900460ff1681565b6000600880549050905090565b600c5481565b600073ffffffffffffffffffffffffffffffffffffffff168273ffffffffffffffffffffffffffffffffffffffff16036109235760006040517f64a0ae9200000000000000000000000000000000000000000000000000000000815260040161091a9190612587565b60405180910390fd5b600061093783836109326110c1565b611180565b90508373ffffffffffffffffffffffffffffffffffffffff168173ffffffffffffffffffffffffffffffffffffffff16146109ad578382826040517f64283d7b0000000000000000000000000000000000000000000000000000000081526004016109a493929190612b50565b60405180910390fd5b50505050565b60006109be83610bd4565b8210610a035782826040517fa57d13dc0000000000000000000000000000000000000000000000000000000081526004016109fa929190612b87565b60405180910390fd5b600660008473ffffffffffffffffffffffffffffffffffffffff1673ffffffffffffffffffffffffffffffffffffffff168152602001908152602001600020600083815260200190815260200160002054905092915050565b610a646110f9565b6000610a6e610ca8565b9050600047905060008273ffffffffffffffffffffffffffffffffffffffff1682604051610a9b90612be1565b60006040518083038185875af1925050503d8060008114610ad8576040519150601f19603f3d011682016040523d82523d6000602084013e610add565b606091505b5050905080610b21576040517f08c379a0000000000000000000000000000000000000000000000000000000008152600401610b1890612c42565b60405180910390fd5b505050565b610b4183838360405180602001604052806000815250610d7a565b505050565b6000610b5061089e565b8210610b96576000826040517fa57d13dc000000000000000000000000000000000000000000000000000000008152600401610b8d929190612b87565b60405180910390fd5b60088281548110610baa57610ba9612c62565b5b90600052602060002001549050919050565b600e5481565b6000610bcd82610ffc565b9050919050565b60008073ffffffffffffffffffffffffffffffffffffffff168273ffffffffffffffffffffffffffffffffffffffff1603610c475760006040517f89c62b64000000000000000000000000000000000000000000000000000000008152600401610c3e9190612587565b60405180910390fd5b600360008373ffffffffffffffffffffffffffffffffffffffff1673ffffffffffffffffffffffffffffffffffffffff168152602001908152602001600020549050919050565b600f5481565b610c9c6110f9565b610ca6600061129d565b565b6000600a60009054906101000a900473ffffffffffffffffffffffffffffffffffffffff16905090565b606060018054610ce190612978565b80601f0160208091040260200160405190810160405280929190818152602001828054610d0d90612978565b8015610d5a5780601f10610d2f57610100808354040283529160200191610d5a565b820191906000526020600020905b815481529060010190602001808311610d3d57829003601f168201915b5050505050905090565b610d76610d6f6110c1565b8383611363565b5050565b610d858484846108b1565b610d91848484846114d2565b50505050565b6060610da282610ffc565b506000610dad611689565b90506000815111610dcd5760405180602001604052806000815250610df8565b80610dd78461171b565b604051602001610de8929190612ccd565b6040516020818303038152906040525b915050919050565b6000600560008473ffffffffffffffffffffffffffffffffffffffff1673ffffffffffffffffffffffffffffffffffffffff16815260200190815260200160002060008373ffffffffffffffffffffffffffffffffffffffff1673ffffffffffffffffffffffffffffffffffffffff16815260200190815260200160002060009054906101000a900460ff16905092915050565b610e9c6110f9565b600073ffffffffffffffffffffffffffffffffffffffff168173ffffffffffffffffffffffffffffffffffffffff1603610f0e5760006040517f1e4fbdf7000000000000000000000000000000000000000000000000000000008152600401610f059190612587565b60405180910390fd5b610f178161129d565b50565b60007f80ac58cd000000000000000000000000000000000000000000000000000000007bffffffffffffffffffffffffffffffffffffffffffffffffffffffff1916827bffffffffffffffffffffffffffffffffffffffffffffffffffffffff19161480610fe557507f5b5e139f000000000000000000000000000000000000000000000000000000007bffffffffffffffffffffffffffffffffffffffffffffffffffffffff1916827bffffffffffffffffffffffffffffffffffffffffffffffffffffffff1916145b80610ff55750610ff4826117e9565b5b9050919050565b60008061100883611853565b9050600073ffffffffffffffffffffffffffffffffffffffff168173ffffffffffffffffffffffffffffffffffffffff160361107b57826040517f7e2732890000000000000000000000000000000000000000000000000000000081526004016110729190612676565b60405180910390fd5b80915050919050565b60006004600083815260200190815260200160002060009054906101000a900473ffffffffffffffffffffffffffffffffffffffff169050919050565b600033905090565b6110d68383836001611890565b505050565b6110f5828260405180602001604052806000815250611a55565b5050565b6111016110c1565b73ffffffffffffffffffffffffffffffffffffffff1661111f610ca8565b73ffffffffffffffffffffffffffffffffffffffff161461117e576111426110c1565b6040517f118cdaa70000000000000000000000000000000000000000000000000000000081526004016111759190612587565b60405180910390fd5b565b60008061118e858585611a71565b9050600073ffffffffffffffffffffffffffffffffffffffff168173ffffffffffffffffffffffffffffffffffffffff16036111d2576111cd84611c8b565b611211565b8473ffffffffffffffffffffffffffffffffffffffff168173ffffffffffffffffffffffffffffffffffffffff16146112105761120f8185611cd4565b5b5b600073ffffffffffffffffffffffffffffffffffffffff168573ffffffffffffffffffffffffffffffffffffffff16036112535761124e84611e35565b611292565b8473ffffffffffffffffffffffffffffffffffffffff168173ffffffffffffffffffffffffffffffffffffffff1614611291576112908585611f06565b5b5b809150509392505050565b6000600a60009054906101000a900473ffffffffffffffffffffffffffffffffffffffff16905081600a60006101000a81548173ffffffffffffffffffffffffffffffffffffffff021916908373ffffffffffffffffffffffffffffffffffffffff1602179055508173ffffffffffffffffffffffffffffffffffffffff168173ffffffffffffffffffffffffffffffffffffffff167f8be0079c531659141344cd1fd0a4f28419497f9722a3daafe3b4186f6b6457e060405160405180910390a35050565b600073ffffffffffffffffffffffffffffffffffffffff168273ffffffffffffffffffffffffffffffffffffffff16036113d457816040517f5b08ba180000000000000000000000000000000000000000000000000000000081526004016113cb9190612587565b60405180910390fd5b80600560008573ffffffffffffffffffffffffffffffffffffffff1673ffffffffffffffffffffffffffffffffffffffff16815260200190815260200160002060008473ffffffffffffffffffffffffffffffffffffffff1673ffffffffffffffffffffffffffffffffffffffff16815260200190815260200160002060006101000a81548160ff0219169083151502179055508173ffffffffffffffffffffffffffffffffffffffff168373ffffffffffffffffffffffffffffffffffffffff167f17307eab39ab6107e8899845ad3d59bd9653f200f220920489ca2b5937696c31836040516114c59190612416565b60405180910390a3505050565b60008373ffffffffffffffffffffffffffffffffffffffff163b1115611683578273ffffffffffffffffffffffffffffffffffffffff1663150b7a026115166110c1565b8685856040518563ffffffff1660e01b81526004016115389493929190612d46565b6020604051808303816000875af192505050801561157457506040513d601f19601f820116820180604052508101906115719190612da7565b60015b6115f8573d80600081146115a4576040519150601f19603f3d011682016040523d82523d6000602084013e6115a9565b606091505b5060008151036115f057836040517f64a0ae920000000000000000000000000000000000000000000000000000000081526004016115e79190612587565b60405180910390fd5b805181602001fd5b63150b7a0260e01b7bffffffffffffffffffffffffffffffffffffffffffffffffffffffff1916817bffffffffffffffffffffffffffffffffffffffffffffffffffffffff19161461168157836040517f64a0ae920000000000000000000000000000000000000000000000000000000081526004016116789190612587565b60405180910390fd5b505b50505050565b6060600b805461169890612978565b80601f01602080910402602001604051908101604052809291908181526020018280546116c490612978565b80156117115780601f106116e657610100808354040283529160200191611711565b820191906000526020600020905b8154815290600101906020018083116116f457829003601f168201915b5050505050905090565b60606000600161172a84611f91565b01905060008167ffffffffffffffff8111156117495761174861275b565b5b6040519080825280601f01601f19166020018201604052801561177b5781602001600182028036833780820191505090505b509050600082602001820190505b6001156117de578080600190039150507f3031323334353637383961626364656600000000000000000000000000000000600a86061a8153600a85816117d2576117d1612dd4565b5b04945060008503611789575b819350505050919050565b60007f01ffc9a7000000000000000000000000000000000000000000000000000000007bffffffffffffffffffffffffffffffffffffffffffffffffffffffff1916827bffffffffffffffffffffffffffffffffffffffffffffffffffffffff1916149050919050565b60006002600083815260200190815260200160002060009054906101000a900473ffffffffffffffffffffffffffffffffffffffff169050919050565b80806118c95750600073ffffffffffffffffffffffffffffffffffffffff168273ffffffffffffffffffffffffffffffffffffffff1614155b156119fd5760006118d984610ffc565b9050600073ffffffffffffffffffffffffffffffffffffffff168373ffffffffffffffffffffffffffffffffffffffff161415801561194457508273ffffffffffffffffffffffffffffffffffffffff168173ffffffffffffffffffffffffffffffffffffffff1614155b801561195757506119558184610e00565b155b1561199957826040517fa9fbf51f0000000000000000000000000000000000000000000000000000000081526004016119909190612587565b60405180910390fd5b81156119fb57838573ffffffffffffffffffffffffffffffffffffffff168273ffffffffffffffffffffffffffffffffffffffff167f8c5be1e5ebec7d5bd14f71427d1e84f3dd0314c0f7b2291e5b200ac8c7c3b92560405160405180910390a45b505b836004600085815260200190815260200160002060006101000a81548173ffffffffffffffffffffffffffffffffffffffff021916908373ffffffffffffffffffffffffffffffffffffffff16021790555050505050565b611a5f83836120e4565b611a6c60008484846114d2565b505050565b600080611a7d84611853565b9050600073ffffffffffffffffffffffffffffffffffffffff168373ffffffffffffffffffffffffffffffffffffffff1614611abf57611abe8184866121dd565b5b600073ffffffffffffffffffffffffffffffffffffffff168173ffffffffffffffffffffffffffffffffffffffff1614611b5057611b01600085600080611890565b6001600360008373ffffffffffffffffffffffffffffffffffffffff1673ffffffffffffffffffffffffffffffffffffffff168152602001908152602001600020600082825403925050819055505b600073ffffffffffffffffffffffffffffffffffffffff168573ffffffffffffffffffffffffffffffffffffffff1614611bd3576001600360008773ffffffffffffffffffffffffffffffffffffffff1673ffffffffffffffffffffffffffffffffffffffff168152602001908152602001600020600082825401925050819055505b846002600086815260200190815260200160002060006101000a81548173ffffffffffffffffffffffffffffffffffffffff021916908373ffffffffffffffffffffffffffffffffffffffff160217905550838573ffffffffffffffffffffffffffffffffffffffff168273ffffffffffffffffffffffffffffffffffffffff167fddf252ad1be2c89b69c2b068fc378daa952ba7f163c4a11628f55a4df523b3ef60405160405180910390a4809150509392505050565b6008805490506009600083815260200190815260200160002081905550600881908060018154018082558091505060019003906000526020600020016000909190919091505550565b6000611cdf83610bd4565b9050600060076000848152602001908152602001600020549050818114611dc4576000600660008673ffffffffffffffffffffffffffffffffffffffff1673ffffffffffffffffffffffffffffffffffffffff168152602001908152602001600020600084815260200190815260200160002054905080600660008773ffffffffffffffffffffffffffffffffffffffff1673ffffffffffffffffffffffffffffffffffffffff168152602001908152602001600020600084815260200190815260200160002081905550816007600083815260200190815260200160002081905550505b6007600084815260200190815260200160002060009055600660008573ffffffffffffffffffffffffffffffffffffffff1673ffffffffffffffffffffffffffffffffffffffff16815260200190815260200160002060008381526020019081526020016000206000905550505050565b60006001600880549050611e499190612e03565b9050600060096000848152602001908152602001600020549050600060088381548110611e7957611e78612c62565b5b906000526020600020015490508060088381548110611e9b57611e9a612c62565b5b906000526020600020018190555081600960008381526020019081526020016000208190555060096000858152602001908152602001600020600090556008805480611eea57611ee9612e37565b5b6001900381819060005260206000200160009055905550505050565b60006001611f1384610bd4565b611f1d9190612e03565b905081600660008573ffffffffffffffffffffffffffffffffffffffff1673ffffffffffffffffffffffffffffffffffffffff168152602001908152602001600020600083815260200190815260200160002081905550806007600084815260200190815260200160002081905550505050565b600080600090507a184f03e93ff9f4daa797ed6e38ed64bf6a1f0100000000000000008310611fef577a184f03e93ff9f4daa797ed6e38ed64bf6a1f0100000000000000008381611fe557611fe4612dd4565b5b0492506040810190505b6d04ee2d6d415b85acef8100000000831061202c576d04ee2d6d415b85acef8100000000838161202257612021612dd4565b5b0492506020810190505b662386f26fc10000831061205b57662386f26fc10000838161205157612050612dd4565b5b0492506010810190505b6305f5e1008310612084576305f5e100838161207a57612079612dd4565b5b0492506008810190505b61271083106120a957612710838161209f5761209e612dd4565b5b0492506004810190505b606483106120cc57606483816120c2576120c1612dd4565b5b0492506002810190505b600a83106120db576001810190505b80915050919050565b600073ffffffffffffffffffffffffffffffffffffffff168273ffffffffffffffffffffffffffffffffffffffff16036121565760006040517f64a0ae9200000000000000000000000000000000000000000000000000000000815260040161214d9190612587565b60405180910390fd5b600061216483836000611180565b9050600073ffffffffffffffffffffffffffffffffffffffff168173ffffffffffffffffffffffffffffffffffffffff16146121d85760006040517f73c6ac6e0000000000000000000000000000000000000000000000000000000081526004016121cf9190612587565b60405180910390fd5b505050565b6121e88383836122a1565b61229c57600073ffffffffffffffffffffffffffffffffffffffff168373ffffffffffffffffffffffffffffffffffffffff160361225d57806040517f7e2732890000000000000000000000000000000000000000000000000000000081526004016122549190612676565b60405180910390fd5b81816040517f177e802f000000000000000000000000000000000000000000000000000000008152600401612293929190612b87565b60405180910390fd5b505050565b60008073ffffffffffffffffffffffffffffffffffffffff168373ffffffffffffffffffffffffffffffffffffffff161415801561235957508273ffffffffffffffffffffffffffffffffffffffff168473ffffffffffffffffffffffffffffffffffffffff16148061231a57506123198484610e00565b5b8061235857508273ffffffffffffffffffffffffffffffffffffffff1661234083611084565b73ffffffffffffffffffffffffffffffffffffffff16145b5b90509392505050565b6000604051905090565b600080fd5b600080fd5b60007fffffffff0000000000000000000000000000000000000000000000000000000082169050919050565b6123ab81612376565b81146123b657600080fd5b50565b6000813590506123c8816123a2565b92915050565b6000602082840312156123e4576123e361236c565b5b60006123f2848285016123b9565b91505092915050565b60008115159050919050565b612410816123fb565b82525050565b600060208201905061242b6000830184612407565b92915050565b600081519050919050565b600082825260208201905092915050565b60005b8381101561246b578082015181840152602081019050612450565b60008484015250505050565b6000601f19601f8301169050919050565b600061249382612431565b61249d818561243c565b93506124ad81856020860161244d565b6124b681612477565b840191505092915050565b600060208201905081810360008301526124db8184612488565b905092915050565b6000819050919050565b6124f6816124e3565b811461250157600080fd5b50565b600081359050612513816124ed565b92915050565b60006020828403121561252f5761252e61236c565b5b600061253d84828501612504565b91505092915050565b600073ffffffffffffffffffffffffffffffffffffffff82169050919050565b600061257182612546565b9050919050565b61258181612566565b82525050565b600060208201905061259c6000830184612578565b92915050565b6125ab81612566565b81146125b657600080fd5b50565b6000813590506125c8816125a2565b92915050565b600080604083850312156125e5576125e461236c565b5b60006125f3858286016125b9565b925050602061260485828601612504565b9150509250929050565b612617816123fb565b811461262257600080fd5b50565b6000813590506126348161260e565b92915050565b6000602082840312156126505761264f61236c565b5b600061265e84828501612625565b91505092915050565b612670816124e3565b82525050565b600060208201905061268b6000830184612667565b92915050565b6000806000606084860312156126aa576126a961236c565b5b60006126b8868287016125b9565b93505060206126c9868287016125b9565b92505060406126da86828701612504565b9150509250925092565b6000602082840312156126fa576126f961236c565b5b6000612708848285016125b9565b91505092915050565b600080604083850312156127285761272761236c565b5b6000612736858286016125b9565b925050602061274785828601612625565b9150509250929050565b600080fd5b600080fd5b7f4e487b7100000000000000000000000000000000000000000000000000000000600052604160045260246000fd5b61279382612477565b810181811067ffffffffffffffff821117156127b2576127b161275b565b5b80604052505050565b60006127c5612362565b90506127d1828261278a565b919050565b600067ffffffffffffffff8211156127f1576127f061275b565b5b6127fa82612477565b9050602081019050919050565b82818337600083830152505050565b6000612829612824846127d6565b6127bb565b90508281526020810184848401111561284557612844612756565b5b612850848285612807565b509392505050565b600082601f83011261286d5761286c612751565b5b813561287d848260208601612816565b91505092915050565b600080600080608085870312156128a05761289f61236c565b5b60006128ae878288016125b9565b94505060206128bf878288016125b9565b93505060406128d087828801612504565b925050606085013567ffffffffffffffff8111156128f1576128f0612371565b5b6128fd87828801612858565b91505092959194509250565b600080604083850312156129205761291f61236c565b5b600061292e858286016125b9565b925050602061293f858286016125b9565b9150509250929050565b7f4e487b7100000000000000000000000000000000000000000000000000000000600052602260045260246000fd5b6000600282049050600182168061299057607f821691505b6020821081036129a3576129a2612949565b5b50919050565b7f436f6e74726163742063757272656e746c792070617573656400000000000000600082015250565b60006129df60198361243c565b91506129ea826129a9565b602082019050919050565b60006020820190508181036000830152612a0e816129d2565b9050919050565b7f457863656564206d6178696d756d204c573350756e6b7320737570706c790000600082015250565b6000612a4b601e8361243c565b9150612a5682612a15565b602082019050919050565b60006020820190508181036000830152612a7a81612a3e565b9050919050565b7f45746865722073656e74206973206e6f7420636f727265637400000000000000600082015250565b6000612ab760198361243c565b9150612ac282612a81565b602082019050919050565b60006020820190508181036000830152612ae681612aaa565b9050919050565b7f4e487b7100000000000000000000000000000000000000000000000000000000600052601160045260246000fd5b6000612b27826124e3565b9150612b32836124e3565b9250828201905080821115612b4a57612b49612aed565b5b92915050565b6000606082019050612b656000830186612578565b612b726020830185612667565b612b7f6040830184612578565b949350505050565b6000604082019050612b9c6000830185612578565b612ba96020830184612667565b9392505050565b600081905092915050565b50565b6000612bcb600083612bb0565b9150612bd682612bbb565b600082019050919050565b6000612bec82612bbe565b9150819050919050565b7f4661696c656420746f2073656e64204574686572000000000000000000000000600082015250565b6000612c2c60148361243c565b9150612c3782612bf6565b602082019050919050565b60006020820190508181036000830152612c5b81612c1f565b9050919050565b7f4e487b7100000000000000000000000000000000000000000000000000000000600052603260045260246000fd5b600081905092915050565b6000612ca782612431565b612cb18185612c91565b9350612cc181856020860161244d565b80840191505092915050565b6000612cd98285612c9c565b9150612ce58284612c9c565b91508190509392505050565b600081519050919050565b600082825260208201905092915050565b6000612d1882612cf1565b612d228185612cfc565b9350612d3281856020860161244d565b612d3b81612477565b840191505092915050565b6000608082019050612d5b6000830187612578565b612d686020830186612578565b612d756040830185612667565b8181036060830152612d878184612d0d565b905095945050505050565b600081519050612da1816123a2565b92915050565b600060208284031215612dbd57612dbc61236c565b5b6000612dcb84828501612d92565b91505092915050565b7f4e487b7100000000000000000000000000000000000000000000000000000000600052601260045260246000fd5b6000612e0e826124e3565b9150612e19836124e3565b9250828203905081811115612e3157612e30612aed565b5b92915050565b7f4e487b7100000000000000000000000000000000000000000000000000000000600052603160045260246000fdfea26469706673582212203297667f938d090c920fa021cd83794ba1fd4ef752c215f80b1b44e1b1cb6ab764736f6c63430008180033",
  "linkReferences": {},
  "deployedLinkReferences": {}
}